{
  "contractName": "CharityToken",
  "abi": [
    {
      "constant": true,
      "inputs": [],
      "name": "name",
      "outputs": [
        {
          "name": "_name",
          "type": "string"
        }
      ],
      "payable": false,
      "stateMutability": "view",
      "type": "function"
    },
    {
      "constant": true,
      "inputs": [
        {
          "name": "_tokenId",
          "type": "uint256"
        }
      ],
      "name": "getApproved",
      "outputs": [
        {
          "name": "_approved",
          "type": "address"
        }
      ],
      "payable": false,
      "stateMutability": "view",
      "type": "function"
    },
    {
      "constant": false,
      "inputs": [
        {
          "name": "_to",
          "type": "address"
        },
        {
          "name": "_tokenId",
          "type": "uint256"
        }
      ],
      "name": "approve",
      "outputs": [],
      "payable": false,
      "stateMutability": "nonpayable",
      "type": "function"
    },
    {
      "constant": true,
      "inputs": [],
      "name": "implementsERC721",
      "outputs": [
        {
          "name": "_implementsERC721",
          "type": "bool"
        }
      ],
      "payable": false,
      "stateMutability": "view",
      "type": "function"
    },
    {
      "constant": true,
      "inputs": [],
      "name": "totalSupply",
      "outputs": [
        {
          "name": "_totalSupply",
          "type": "uint256"
        }
      ],
      "payable": false,
      "stateMutability": "view",
      "type": "function"
    },
    {
      "constant": false,
      "inputs": [
        {
          "name": "_from",
          "type": "address"
        },
        {
          "name": "_to",
          "type": "address"
        },
        {
          "name": "_tokenId",
          "type": "uint256"
        }
      ],
      "name": "transferFrom",
      "outputs": [],
      "payable": false,
      "stateMutability": "nonpayable",
      "type": "function"
    },
    {
      "constant": true,
      "inputs": [
        {
          "name": "_owner",
          "type": "address"
        },
        {
          "name": "_index",
          "type": "uint256"
        }
      ],
      "name": "tokenOfOwnerByIndex",
      "outputs": [
        {
          "name": "_tokenId",
          "type": "uint256"
        }
      ],
      "payable": false,
      "stateMutability": "view",
      "type": "function"
    },
    {
      "constant": false,
      "inputs": [
        {
          "name": "_from",
          "type": "address"
        },
        {
          "name": "_to",
          "type": "address"
        },
        {
          "name": "_tokenId",
          "type": "uint256"
        }
      ],
      "name": "forceTransfer",
      "outputs": [],
      "payable": false,
      "stateMutability": "nonpayable",
      "type": "function"
    },
    {
      "constant": true,
      "inputs": [
        {
          "name": "_tokenId",
          "type": "uint256"
        }
      ],
      "name": "ownerOf",
      "outputs": [
        {
          "name": "_owner",
          "type": "address"
        }
      ],
      "payable": false,
      "stateMutability": "view",
      "type": "function"
    },
    {
      "constant": true,
      "inputs": [
        {
          "name": "_tokenId",
          "type": "uint256"
        }
      ],
      "name": "tokenMetadata",
      "outputs": [
        {
          "name": "_infoUrl",
          "type": "string"
        }
      ],
      "payable": false,
      "stateMutability": "view",
      "type": "function"
    },
    {
      "constant": true,
      "inputs": [
        {
          "name": "_owner",
          "type": "address"
        }
      ],
      "name": "balanceOf",
      "outputs": [
        {
          "name": "_balance",
          "type": "uint256"
        }
      ],
      "payable": false,
      "stateMutability": "view",
      "type": "function"
    },
    {
      "constant": true,
      "inputs": [],
      "name": "owner",
      "outputs": [
        {
          "name": "",
          "type": "address"
        }
      ],
      "payable": false,
      "stateMutability": "view",
      "type": "function"
    },
    {
      "constant": true,
      "inputs": [],
      "name": "symbol",
      "outputs": [
        {
          "name": "_symbol",
          "type": "string"
        }
      ],
      "payable": false,
      "stateMutability": "view",
      "type": "function"
    },
    {
      "constant": false,
      "inputs": [
        {
          "name": "_to",
          "type": "address"
        },
        {
          "name": "_tokenId",
          "type": "uint256"
        }
      ],
      "name": "transfer",
      "outputs": [],
      "payable": false,
      "stateMutability": "nonpayable",
      "type": "function"
    },
    {
      "constant": true,
      "inputs": [],
      "name": "numTokensTotal",
      "outputs": [
        {
          "name": "",
          "type": "uint256"
        }
      ],
      "payable": false,
      "stateMutability": "view",
      "type": "function"
    },
    {
      "constant": false,
      "inputs": [
        {
          "name": "_owner",
          "type": "address"
        },
        {
          "name": "_metadata",
          "type": "string"
        }
      ],
      "name": "mint",
      "outputs": [
        {
          "name": "_tokenId",
          "type": "uint256"
        }
      ],
      "payable": false,
      "stateMutability": "nonpayable",
      "type": "function"
    },
    {
      "constant": true,
      "inputs": [
        {
          "name": "_owner",
          "type": "address"
        }
      ],
      "name": "getOwnerTokens",
      "outputs": [
        {
          "name": "_tokenIds",
          "type": "uint256[]"
        }
      ],
      "payable": false,
      "stateMutability": "view",
      "type": "function"
    },
    {
      "constant": false,
      "inputs": [
        {
          "name": "newOwner",
          "type": "address"
        }
      ],
      "name": "transferOwnership",
      "outputs": [],
      "payable": false,
      "stateMutability": "nonpayable",
      "type": "function"
    },
    {
      "inputs": [
        {
          "name": "_name",
          "type": "string"
        },
        {
          "name": "_symbol",
          "type": "string"
        }
      ],
      "payable": false,
      "stateMutability": "nonpayable",
      "type": "constructor"
    },
    {
      "anonymous": false,
      "inputs": [
        {
          "indexed": true,
          "name": "_to",
          "type": "address"
        },
        {
          "indexed": true,
          "name": "_tokenId",
          "type": "uint256"
        }
      ],
      "name": "Mint",
      "type": "event"
    },
    {
      "anonymous": false,
      "inputs": [
        {
          "indexed": true,
          "name": "previousOwner",
          "type": "address"
        },
        {
          "indexed": true,
          "name": "newOwner",
          "type": "address"
        }
      ],
      "name": "OwnershipTransferred",
      "type": "event"
    },
    {
      "anonymous": false,
      "inputs": [
        {
          "indexed": true,
          "name": "_from",
          "type": "address"
        },
        {
          "indexed": true,
          "name": "_to",
          "type": "address"
        },
        {
          "indexed": false,
          "name": "_tokenId",
          "type": "uint256"
        }
      ],
      "name": "Transfer",
      "type": "event"
    },
    {
      "anonymous": false,
      "inputs": [
        {
          "indexed": true,
          "name": "_owner",
          "type": "address"
        },
        {
          "indexed": true,
          "name": "_approved",
          "type": "address"
        },
        {
          "indexed": false,
          "name": "_tokenId",
          "type": "uint256"
        }
      ],
      "name": "Approval",
      "type": "event"
    }
  ],
  "bytecode": "0x6060604052341561000f57600080fd5b6040516200103b3803806200103b8339810160405280805182019190602001805160088054600160a060020a03191633600160a060020a03161790559190910190506000828051610064929160200190610080565b506001818051610078929160200190610080565b50505061011b565b828054600181600116156101000203166002900490600052602060002090601f016020900481019282601f106100c157805160ff19168380011785556100ee565b828001600101855582156100ee579182015b828111156100ee5782518255916020019190600101906100d3565b506100fa9291506100fe565b5090565b61011891905b808211156100fa5760008155600101610104565b90565b610f10806200012b6000396000f3006060604052600436106100fb5763ffffffff7c010000000000000000000000000000000000000000000000000000000060003504166306fdde038114610100578063081812fc1461018a578063095ea7b3146101bc5780631051db34146101e057806318160ddd1461020757806323b872dd1461022c5780632f745c591461025457806333bebb77146102765780636352211e1461029e5780636914db60146102b457806370a08231146102ca5780638da5cb5b146102e957806395d89b41146102fc578063a9059cbb1461030f578063af129dc214610331578063d0def52114610344578063d63d4af0146103a3578063f2fde38b14610415575b600080fd5b341561010b57600080fd5b610113610434565b60405160208082528190810183818151815260200191508051906020019080838360005b8381101561014f578082015183820152602001610137565b50505050905090810190601f16801561017c5780820380516001836020036101000a031916815260200191505b509250505060405180910390f35b341561019557600080fd5b6101a06004356104dd565b604051600160a060020a03909116815260200160405180910390f35b34156101c757600080fd5b6101de600160a060020a03600435166024356104ee565b005b34156101eb57600080fd5b6101f36105dc565b604051901515815260200160405180910390f35b341561021257600080fd5b61021a6105e1565b60405190815260200160405180910390f35b341561023757600080fd5b6101de600160a060020a03600435811690602435166044356105e7565b341561025f57600080fd5b61021a600160a060020a03600435166024356106ff565b341561028157600080fd5b6101de600160a060020a0360043581169060243516604435610712565b34156102a957600080fd5b6101a0600435610738565b34156102bf57600080fd5b610113600435610743565b34156102d557600080fd5b61021a600160a060020a03600435166107fe565b34156102f457600080fd5b6101a0610819565b341561030757600080fd5b610113610828565b341561031a57600080fd5b6101de600160a060020a036004351660243561089b565b341561033c57600080fd5b61021a61098c565b341561034f57600080fd5b61021a60048035600160a060020a03169060446024803590810190830135806020601f8201819004810201604051908101604052818152929190602084018383808284375094965061099295505050505050565b34156103ae57600080fd5b6103c2600160a060020a0360043516610a29565b60405160208082528190810183818151815260200191508051906020019060200280838360005b838110156104015780820151838201526020016103e9565b505050509050019250505060405180910390f35b341561042057600080fd5b6101de600160a060020a0360043516610a3a565b61043c610e16565b60008054600181600116156101000203166002900480601f0160208091040260200160405190810160405280929190818152602001828054600181600116156101000203166002900480156104d25780601f106104a7576101008083540402835291602001916104d2565b820191906000526020600020905b8154815290600101906020018083116104b557829003601f168201915b505050505090505b90565b60006104e882610ad5565b92915050565b8060006104fa82610738565b600160a060020a0316141561050e57600080fd5b61051782610738565b600160a060020a031633600160a060020a031614151561053657600080fd5b82600160a060020a031633600160a060020a03161415151561055757600080fd5b600061056283610ad5565b600160a060020a03161415806105805750600160a060020a03831615155b156105d75761058f8383610af0565b82600160a060020a031633600160a060020a03167f8c5be1e5ebec7d5bd14f71427d1e84f3dd0314c0f7b2291e5b200ac8c7c3b9258460405190815260200160405180910390a35b505050565b600190565b60025490565b8060006105f382610738565b600160a060020a0316141561060757600080fd5b33600160a060020a031661061a836104dd565b600160a060020a03161461062d57600080fd5b83600160a060020a031661064083610738565b600160a060020a03161461065357600080fd5b600160a060020a038316151561066857600080fd5b610673848484610b2b565b600084600160a060020a03167f8c5be1e5ebec7d5bd14f71427d1e84f3dd0314c0f7b2291e5b200ac8c7c3b9258460405190815260200160405180910390a382600160a060020a031684600160a060020a03167fddf252ad1be2c89b69c2b068fc378daa952ba7f163c4a11628f55a4df523b3ef8460405190815260200160405180910390a350505050565b600061070b8383610b52565b9392505050565b60085433600160a060020a0390811691161461072d57600080fd5b6105d7838383610b2b565b60006104e882610b8a565b61074b610e16565b600560008381526020019081526020016000208054600181600116156101000203166002900480601f0160208091040260200160405190810160405280929190818152602001828054600181600116156101000203166002900480156107f25780601f106107c7576101008083540402835291602001916107f2565b820191906000526020600020905b8154815290600101906020018083116107d557829003601f168201915b50505050509050919050565b600160a060020a031660009081526006602052604090205490565b600854600160a060020a031681565b610830610e16565b60018054600181600116156101000203166002900480601f0160208091040260200160405190810160405280929190818152602001828054600181600116156101000203166002900480156104d25780601f106104a7576101008083540402835291602001916104d2565b8060006108a782610738565b600160a060020a031614156108bb57600080fd5b33600160a060020a03166108ce83610738565b600160a060020a0316146108e157600080fd5b600160a060020a03831615156108f657600080fd5b610901338484610b2b565b600033600160a060020a03167f8c5be1e5ebec7d5bd14f71427d1e84f3dd0314c0f7b2291e5b200ac8c7c3b9258460405190815260200160405180910390a382600160a060020a031633600160a060020a03167fddf252ad1be2c89b69c2b068fc378daa952ba7f163c4a11628f55a4df523b3ef8460405190815260200160405180910390a3505050565b60025481565b600854600090819033600160a060020a039081169116146109b257600080fd5b506002546109c08185610ba5565b6109ca8482610be0565b6109d48184610c47565b6002546109e890600163ffffffff610c6616565b60025580600160a060020a0385167f0f6798a560793a54c3bcfe86a93cde1e73087d944c0ea20544137d412139688560405160405180910390a39392505050565b610a31610e16565b6104e882610c75565b60085433600160a060020a03908116911614610a5557600080fd5b600160a060020a0381161515610a6a57600080fd5b600854600160a060020a0380831691167f8be0079c531659141344cd1fd0a4f28419497f9722a3daafe3b4186f6b6457e060405160405180910390a36008805473ffffffffffffffffffffffffffffffffffffffff1916600160a060020a0392909216919091179055565b600090815260046020526040902054600160a060020a031690565b6000908152600460205260409020805473ffffffffffffffffffffffffffffffffffffffff1916600160a060020a0392909216919091179055565b610b3481610cf7565b610b3e8382610d22565b610b488183610ba5565b6105d78282610be0565b600160a060020a0382166000908152600660205260408120805483908110610b7657fe5b906000526020600020900154905092915050565b600090815260036020526040902054600160a060020a031690565b600091825260036020526040909120805473ffffffffffffffffffffffffffffffffffffffff1916600160a060020a03909216919091179055565b600160a060020a0382166000908152600660205260409020805460018101610c088382610e28565b506000918252602080832091909101839055600160a060020a039093168152600683526040808220549282526007909352919091206000199091019055565b60008281526005602052604090208180516105d7929160200190610e4c565b60008282018381101561070b57fe5b610c7d610e16565b6006600083600160a060020a0316600160a060020a031681526020019081526020016000208054806020026020016040519081016040528092919081815260200182805480156107f257602002820191906000526020600020905b815481526020019060010190808311610cd85750505050509050919050565b6000908152600460205260409020805473ffffffffffffffffffffffffffffffffffffffff19169055565b600160a060020a038216600081815260066020818152604080842080548786526007845291852054958552929091529291906000198401848110610d6257fe5b6000918252602080832090910154600160a060020a0388168352600690915260409091208054919250829184908110610d9757fe5b6000918252602080832090910192909255828152600782526040808220859055600160a060020a038816825260069092522080546000198501908110610dd957fe5b60009182526020808320909101829055600160a060020a03871682526006905260409020805490610e0e906000198301610e28565b505050505050565b60206040519081016040526000815290565b8154818355818115116105d7576000838152602090206105d7918101908301610eca565b828054600181600116156101000203166002900490600052602060002090601f016020900481019282601f10610e8d57805160ff1916838001178555610eba565b82800160010185558215610eba579182015b82811115610eba578251825591602001919060010190610e9f565b50610ec6929150610eca565b5090565b6104da91905b80821115610ec65760008155600101610ed05600a165627a7a72305820d4e54686d3962bf63d16621013bb90d3036f9d604a52c07a2b50e1105ba2a0900029",
  "source": "pragma solidity ^0.4.18;\n\nimport \"./NonFungibleToken.sol\";\nimport \"zeppelin-solidity/contracts/ownership/Ownable.sol\";\nimport \"zeppelin-solidity/contracts/math/SafeMath.sol\";\n\ncontract CharityToken is NonFungibleToken, Ownable {\n    using SafeMath for uint;\n\n    event Mint(address indexed _to, uint256 indexed _tokenId);\n\n    modifier onlyNonexistentToken(uint _tokenId) {\n        require(tokenIdToOwner[_tokenId] == address(0));\n        _;\n    }\n\n    function CharityToken(string _name, string _symbol) {\n        name = _name;\n        symbol = _symbol;\n    }\n\n    function mint(address _owner, string _metadata)\n        public onlyOwner returns(uint _tokenId)\n    {\n        uint tokenId = numTokensTotal;\n\n        _setTokenOwner(tokenId, _owner);\n        _addTokenToOwnersList(_owner, tokenId);\n        _insertTokenMetadata(tokenId, _metadata);\n\n        numTokensTotal = numTokensTotal.add(1);\n\n        Mint(_owner, tokenId);\n\n        return tokenId;\n    }\n\n    function forceTransfer(address _from, address _to, uint _tokenId)\n        public onlyOwner\n    {\n        _clearApprovalAndTransfer(_from, _to, _tokenId);\n    }\n}\n",
  "sourcePath": "/src/contracts/CharityToken.sol",
  "compiler": {
    "name": "solc",
    "version": "0.4.18+commit.9cf6e910.Emscripten.clang"
  },
  "schemaVersion": "1.0.1",
  "updatedAt": "2017-12-28T18:26:43.845Z"
}