{
  "contractName": "GiftChallenge",
  "abi": [
    {
      "constant": false,
      "inputs": [
        {
          "name": "_servant",
          "type": "address"
        },
        {
          "name": "_link",
          "type": "string"
        }
      ],
      "name": "createToken",
      "outputs": [],
      "payable": false,
      "stateMutability": "nonpayable",
      "type": "function"
    },
    {
      "constant": true,
      "inputs": [
        {
          "name": "_link",
          "type": "string"
        }
      ],
      "name": "getOwner",
      "outputs": [
        {
          "name": "",
          "type": "address"
        }
      ],
      "payable": false,
      "stateMutability": "view",
      "type": "function"
    },
    {
      "constant": true,
      "inputs": [
        {
          "name": "_link",
          "type": "string"
        }
      ],
      "name": "getPrice",
      "outputs": [
        {
          "name": "",
          "type": "uint256"
        }
      ],
      "payable": false,
      "stateMutability": "view",
      "type": "function"
    },
    {
      "constant": false,
      "inputs": [
        {
          "name": "_link",
          "type": "string"
        }
      ],
      "name": "buyToken",
      "outputs": [],
      "payable": true,
      "stateMutability": "payable",
      "type": "function"
    },
    {
      "constant": true,
      "inputs": [
        {
          "name": "_link",
          "type": "string"
        }
      ],
      "name": "getToken",
      "outputs": [
        {
          "name": "",
          "type": "uint256"
        }
      ],
      "payable": false,
      "stateMutability": "view",
      "type": "function"
    },
    {
      "constant": true,
      "inputs": [
        {
          "name": "_link",
          "type": "string"
        }
      ],
      "name": "getServant",
      "outputs": [
        {
          "name": "",
          "type": "address"
        }
      ],
      "payable": false,
      "stateMutability": "view",
      "type": "function"
    },
    {
      "constant": true,
      "inputs": [],
      "name": "token",
      "outputs": [
        {
          "name": "",
          "type": "address"
        }
      ],
      "payable": false,
      "stateMutability": "view",
      "type": "function"
    },
    {
      "inputs": [],
      "payable": false,
      "stateMutability": "nonpayable",
      "type": "constructor"
    },
    {
      "payable": true,
      "stateMutability": "payable",
      "type": "fallback"
    },
    {
      "anonymous": false,
      "inputs": [
        {
          "indexed": true,
          "name": "_servant",
          "type": "address"
        },
        {
          "indexed": false,
          "name": "_link",
          "type": "string"
        },
        {
          "indexed": true,
          "name": "_token",
          "type": "uint256"
        }
      ],
      "name": "TokenCreated",
      "type": "event"
    },
    {
      "anonymous": false,
      "inputs": [
        {
          "indexed": true,
          "name": "_token",
          "type": "uint256"
        },
        {
          "indexed": true,
          "name": "_previousOwner",
          "type": "address"
        },
        {
          "indexed": true,
          "name": "_newOwner",
          "type": "address"
        },
        {
          "indexed": false,
          "name": "_previousPrice",
          "type": "uint256"
        },
        {
          "indexed": false,
          "name": "_newPrice",
          "type": "uint256"
        }
      ],
      "name": "TokenBought",
      "type": "event"
    }
  ],
  "bytecode": "0x6060604052341561000f57600080fd5b610024640100000000610b6661004982021704565b60018054600160a060020a031916600160a060020a03929092169190911790556100e8565b60006100536100d8565b60408082526014818301527f47696674204368616c6c656e676520546f6b656e00000000000000000000000060608301526080602083018190526004908301527f474946540000000000000000000000000000000000000000000000000000000060a083015260c09091019051809103906000f08015156100d357600080fd5b905090565b604051610ff680611d1e83390190565b611c27806100f76000396000f3006060604052600436106100695763ffffffff60e060020a60003504166301382807811461006e5780634aaf4a12146100cf578063524f38891461013c57806365d0dfc41461019f578063c1733f68146101b2578063e5fcab0314610203578063fc0c546a14610254575b600080fd5b341561007957600080fd5b6100cd60048035600160a060020a03169060446024803590810190830135806020601f8201819004810201604051908101604052818152929190602084018383808284375094965061026795505050505050565b005b34156100da57600080fd5b61012060046024813581810190830135806020601f820181900481020160405190810160405281815292919060208401838380828437509496506104d795505050505050565b604051600160a060020a03909116815260200160405180910390f35b341561014757600080fd5b61018d60046024813581810190830135806020601f820181900481020160405190810160405281815292919060208401838380828437509496506105bb95505050505050565b60405190815260200160405180910390f35b6100cd600480356024810191013561062c565b34156101bd57600080fd5b61018d60046024813581810190830135806020601f8201819004810201604051908101604052818152929190602084018383808284375094965061095595505050505050565b341561020e57600080fd5b61012060046024813581810190830135806020601f820181900481020160405190810160405281815292919060208401838380828437509496506109c695505050505050565b341561025f57600080fd5b610120610a40565b600080600160a060020a038416151561027f57600080fd5b6000836040518082805190602001908083835b602083106102b15780518252601f199092019160209182019101610292565b6001836020036101000a038019825116818451168082178552505050505050905001915050908152602001604051908190039020805490925060ff16156102f757600080fd5b600154600160a060020a031663d0def52185856000604051602001526040518363ffffffff1660e060020a0281526004018083600160a060020a0316600160a060020a0316815260200180602001828103825283818151815260200191508051906020019080838360005b8381101561037a578082015183820152602001610362565b50505050905090810190601f1680156103a75780820380516001836020036101000a031916815260200191505b509350505050602060405180830381600087803b15156103c657600080fd5b6102c65a03f115156103d757600080fd5b505050604051805160038401819055915050600182018380516103fe929160200190610a7a565b5060028201805473ffffffffffffffffffffffffffffffffffffffff1916600160a060020a038616908117909155825460ff1916600117835581907f245219c91d644a43a38d1479b1e5a7cc4b5c371d7049bff40dfd12c136c4e72a8560405160208082528190810183818151815260200191508051906020019080838360005b8381101561049757808201518382015260200161047f565b50505050905090810190601f1680156104c45780820380516001836020036101000a031916815260200191505b509250505060405180910390a350505050565b600080600080846040518082805190602001908083835b6020831061050d5780518252601f1990920191602091820191016104ee565b6001836020036101000a03801982511681845116808217855250505050505090500191505090815260200160405190819003902060030154600154909250600160a060020a0316636352211e8360006040516020015260405160e060020a63ffffffff84160281526004810191909152602401602060405180830381600087803b151561059957600080fd5b6102c65a03f115156105aa57600080fd5b505050604051805195945050505050565b600080826040518082805190602001908083835b602083106105ee5780518252601f1990920191602091820191016105cf565b6001836020036101000a0380198251168184511680821785525050505050509050019150509081526020016040518091039020600401549050919050565b610634610af8565b600080600080868660405180838380828437820191505092505050908152602001604051809103902060a060405190810160405290816000820160009054906101000a900460ff16151515158152602001600182018054600181600116156101000203166002900480601f01602080910402602001604051908101604052809291908181526020018280546001816001161561010002031660029004801561071d5780601f106106f25761010080835404028352916020019161071d565b820191906000526020600020905b81548152906001019060200180831161070057829003601f168201915b5050509183525050600282810154600160a060020a03166020830152600383015460408301526004909201546060909101529094506107679060808601519063ffffffff610a4f16565b34101561077357600080fd5b600154600160a060020a0316636352211e606086015160006040516020015260405160e060020a63ffffffff84160281526004810191909152602401602060405180830381600087803b15156107c857600080fd5b6102c65a03f115156107d957600080fd5b5050506040518051935050604084015191505060023404600160a060020a0383166108fc82150282604051600060405180830381858888f19350505050151561082157600080fd5b81600160a060020a03166108fc8234039081150290604051600060405180830381858888f19350505050151561085657600080fd5b600154600160a060020a03166333bebb778433606088015160405160e060020a63ffffffff8616028152600160a060020a0393841660048201529190921660248201526044810191909152606401600060405180830381600087803b15156108bd57600080fd5b6102c65a03f115156108ce57600080fd5b50505034600087876040518083838082843782019150509250505090815260200160405190819003902060040155600160a060020a0333811690841660608601517fe4e1b516d0ee263def78c6ef1bf60911401cce7746bd120a790ca2faf24971ea87608001513460405191825260208201526040908101905180910390a4505050505050565b600080826040518082805190602001908083835b602083106109885780518252601f199092019160209182019101610969565b6001836020036101000a0380198251168184511680821785525050505050509050019150509081526020016040518091039020600301549050919050565b600080826040518082805190602001908083835b602083106109f95780518252601f1990920191602091820191016109da565b6001836020036101000a03801982511681845116808217855250505050505090500191505090815260200160405190819003902060020154600160a060020a031692915050565b600154600160a060020a031681565b6000828202831580610a6b5750828482811515610a6857fe5b04145b1515610a7357fe5b9392505050565b828054600181600116156101000203166002900490600052602060002090601f016020900481019282601f10610abb57805160ff1916838001178555610ae8565b82800160010185558215610ae8579182015b82811115610ae8578251825591602001919060010190610acd565b50610af4929150610b37565b5090565b60a06040519081016040526000815260208101610b13610b54565b81526020016000600160a060020a0316815260200160008152602001600081525090565b610b5191905b80821115610af45760008155600101610b3d565b90565b60206040519081016040526000815290565b6000610b70610bf5565b60408082526014818301527f47696674204368616c6c656e676520546f6b656e00000000000000000000000060608301526080602083018190526004908301527f474946540000000000000000000000000000000000000000000000000000000060a083015260c09091019051809103906000f0801515610bf057600080fd5b905090565b604051610ff680610c068339019056006060604052341561000f57600080fd5b60405162000ff638038062000ff68339810160405280805182019190602001805160088054600160a060020a03191633600160a060020a03161790559190910190506000828051610064929160200190610080565b506001818051610078929160200190610080565b50505061011b565b828054600181600116156101000203166002900490600052602060002090601f016020900481019282601f106100c157805160ff19168380011785556100ee565b828001600101855582156100ee579182015b828111156100ee5782518255916020019190600101906100d3565b506100fa9291506100fe565b5090565b61011891905b808211156100fa5760008155600101610104565b90565b610ecb806200012b6000396000f3006060604052600436106100fb5763ffffffff7c010000000000000000000000000000000000000000000000000000000060003504166306fdde038114610100578063081812fc1461018a578063095ea7b3146101bc5780631051db34146101e057806318160ddd1461020757806323b872dd1461022c5780632f745c591461025457806333bebb77146102765780636352211e1461029e5780636914db60146102b457806370a08231146102ca5780638da5cb5b146102e957806395d89b41146102fc578063a9059cbb1461030f578063af129dc214610331578063d0def52114610344578063d63d4af0146103a3578063f2fde38b14610415575b600080fd5b341561010b57600080fd5b610113610434565b60405160208082528190810183818151815260200191508051906020019080838360005b8381101561014f578082015183820152602001610137565b50505050905090810190601f16801561017c5780820380516001836020036101000a031916815260200191505b509250505060405180910390f35b341561019557600080fd5b6101a06004356104dd565b604051600160a060020a03909116815260200160405180910390f35b34156101c757600080fd5b6101de600160a060020a03600435166024356104ee565b005b34156101eb57600080fd5b6101f36105dc565b604051901515815260200160405180910390f35b341561021257600080fd5b61021a6105e1565b60405190815260200160405180910390f35b341561023757600080fd5b6101de600160a060020a03600435811690602435166044356105e7565b341561025f57600080fd5b61021a600160a060020a03600435166024356106ff565b341561028157600080fd5b6101de600160a060020a0360043581169060243516604435610712565b34156102a957600080fd5b6101a0600435610738565b34156102bf57600080fd5b610113600435610743565b34156102d557600080fd5b61021a600160a060020a03600435166107fe565b34156102f457600080fd5b6101a0610819565b341561030757600080fd5b610113610828565b341561031a57600080fd5b6101de600160a060020a036004351660243561089b565b341561033c57600080fd5b61021a61098c565b341561034f57600080fd5b61021a60048035600160a060020a03169060446024803590810190830135806020601f8201819004810201604051908101604052818152929190602084018383808284375094965061099295505050505050565b34156103ae57600080fd5b6103c2600160a060020a0360043516610a29565b60405160208082528190810183818151815260200191508051906020019060200280838360005b838110156104015780820151838201526020016103e9565b505050509050019250505060405180910390f35b341561042057600080fd5b6101de600160a060020a0360043516610a3a565b61043c610dd1565b60008054600181600116156101000203166002900480601f0160208091040260200160405190810160405280929190818152602001828054600181600116156101000203166002900480156104d25780601f106104a7576101008083540402835291602001916104d2565b820191906000526020600020905b8154815290600101906020018083116104b557829003601f168201915b505050505090505b90565b60006104e882610a90565b92915050565b8060006104fa82610738565b600160a060020a0316141561050e57600080fd5b61051782610738565b600160a060020a031633600160a060020a031614151561053657600080fd5b82600160a060020a031633600160a060020a03161415151561055757600080fd5b600061056283610a90565b600160a060020a03161415806105805750600160a060020a03831615155b156105d75761058f8383610aab565b82600160a060020a031633600160a060020a03167f8c5be1e5ebec7d5bd14f71427d1e84f3dd0314c0f7b2291e5b200ac8c7c3b9258460405190815260200160405180910390a35b505050565b600190565b60025490565b8060006105f382610738565b600160a060020a0316141561060757600080fd5b33600160a060020a031661061a836104dd565b600160a060020a03161461062d57600080fd5b83600160a060020a031661064083610738565b600160a060020a03161461065357600080fd5b600160a060020a038316151561066857600080fd5b610673848484610ae6565b600084600160a060020a03167f8c5be1e5ebec7d5bd14f71427d1e84f3dd0314c0f7b2291e5b200ac8c7c3b9258460405190815260200160405180910390a382600160a060020a031684600160a060020a03167fddf252ad1be2c89b69c2b068fc378daa952ba7f163c4a11628f55a4df523b3ef8460405190815260200160405180910390a350505050565b600061070b8383610b0d565b9392505050565b60085433600160a060020a0390811691161461072d57600080fd5b6105d7838383610ae6565b60006104e882610b45565b61074b610dd1565b600560008381526020019081526020016000208054600181600116156101000203166002900480601f0160208091040260200160405190810160405280929190818152602001828054600181600116156101000203166002900480156107f25780601f106107c7576101008083540402835291602001916107f2565b820191906000526020600020905b8154815290600101906020018083116107d557829003601f168201915b50505050509050919050565b600160a060020a031660009081526006602052604090205490565b600854600160a060020a031681565b610830610dd1565b60018054600181600116156101000203166002900480601f0160208091040260200160405190810160405280929190818152602001828054600181600116156101000203166002900480156104d25780601f106104a7576101008083540402835291602001916104d2565b8060006108a782610738565b600160a060020a031614156108bb57600080fd5b33600160a060020a03166108ce83610738565b600160a060020a0316146108e157600080fd5b600160a060020a03831615156108f657600080fd5b610901338484610ae6565b600033600160a060020a03167f8c5be1e5ebec7d5bd14f71427d1e84f3dd0314c0f7b2291e5b200ac8c7c3b9258460405190815260200160405180910390a382600160a060020a031633600160a060020a03167fddf252ad1be2c89b69c2b068fc378daa952ba7f163c4a11628f55a4df523b3ef8460405190815260200160405180910390a3505050565b60025481565b600854600090819033600160a060020a039081169116146109b257600080fd5b506002546109c08185610b60565b6109ca8482610b9b565b6109d48184610c02565b6002546109e890600163ffffffff610c2116565b60025580600160a060020a0385167f0f6798a560793a54c3bcfe86a93cde1e73087d944c0ea20544137d412139688560405160405180910390a39392505050565b610a31610dd1565b6104e882610c30565b60085433600160a060020a03908116911614610a5557600080fd5b600160a060020a03811615610a8d576008805473ffffffffffffffffffffffffffffffffffffffff1916600160a060020a0383161790555b50565b600090815260046020526040902054600160a060020a031690565b6000908152600460205260409020805473ffffffffffffffffffffffffffffffffffffffff1916600160a060020a0392909216919091179055565b610aef81610cb2565b610af98382610cdd565b610b038183610b60565b6105d78282610b9b565b600160a060020a0382166000908152600660205260408120805483908110610b3157fe5b906000526020600020900154905092915050565b600090815260036020526040902054600160a060020a031690565b600091825260036020526040909120805473ffffffffffffffffffffffffffffffffffffffff1916600160a060020a03909216919091179055565b600160a060020a0382166000908152600660205260409020805460018101610bc38382610de3565b506000918252602080832091909101839055600160a060020a039093168152600683526040808220549282526007909352919091206000199091019055565b60008281526005602052604090208180516105d7929160200190610e07565b60008282018381101561070b57fe5b610c38610dd1565b6006600083600160a060020a0316600160a060020a031681526020019081526020016000208054806020026020016040519081016040528092919081815260200182805480156107f257602002820191906000526020600020905b815481526020019060010190808311610c935750505050509050919050565b6000908152600460205260409020805473ffffffffffffffffffffffffffffffffffffffff19169055565b600160a060020a038216600081815260066020818152604080842080548786526007845291852054958552929091529291906000198401848110610d1d57fe5b6000918252602080832090910154600160a060020a0388168352600690915260409091208054919250829184908110610d5257fe5b6000918252602080832090910192909255828152600782526040808220859055600160a060020a038816825260069092522080546000198501908110610d9457fe5b60009182526020808320909101829055600160a060020a03871682526006905260409020805490610dc9906000198301610de3565b505050505050565b60206040519081016040526000815290565b8154818355818115116105d7576000838152602090206105d7918101908301610e85565b828054600181600116156101000203166002900490600052602060002090601f016020900481019282601f10610e4857805160ff1916838001178555610e75565b82800160010185558215610e75579182015b82811115610e75578251825591602001919060010190610e5a565b50610e81929150610e85565b5090565b6104da91905b80821115610e815760008155600101610e8b5600a165627a7a72305820a7c090eece863bc66dda917f9c59f841e520aac9ebc787090856af86970ee3210029a165627a7a723058203b373789a37dd0f30f969a850a15b2b116363a79cadfcf420831af0289cd0ead00296060604052341561000f57600080fd5b60405162000ff638038062000ff68339810160405280805182019190602001805160088054600160a060020a03191633600160a060020a03161790559190910190506000828051610064929160200190610080565b506001818051610078929160200190610080565b50505061011b565b828054600181600116156101000203166002900490600052602060002090601f016020900481019282601f106100c157805160ff19168380011785556100ee565b828001600101855582156100ee579182015b828111156100ee5782518255916020019190600101906100d3565b506100fa9291506100fe565b5090565b61011891905b808211156100fa5760008155600101610104565b90565b610ecb806200012b6000396000f3006060604052600436106100fb5763ffffffff7c010000000000000000000000000000000000000000000000000000000060003504166306fdde038114610100578063081812fc1461018a578063095ea7b3146101bc5780631051db34146101e057806318160ddd1461020757806323b872dd1461022c5780632f745c591461025457806333bebb77146102765780636352211e1461029e5780636914db60146102b457806370a08231146102ca5780638da5cb5b146102e957806395d89b41146102fc578063a9059cbb1461030f578063af129dc214610331578063d0def52114610344578063d63d4af0146103a3578063f2fde38b14610415575b600080fd5b341561010b57600080fd5b610113610434565b60405160208082528190810183818151815260200191508051906020019080838360005b8381101561014f578082015183820152602001610137565b50505050905090810190601f16801561017c5780820380516001836020036101000a031916815260200191505b509250505060405180910390f35b341561019557600080fd5b6101a06004356104dd565b604051600160a060020a03909116815260200160405180910390f35b34156101c757600080fd5b6101de600160a060020a03600435166024356104ee565b005b34156101eb57600080fd5b6101f36105dc565b604051901515815260200160405180910390f35b341561021257600080fd5b61021a6105e1565b60405190815260200160405180910390f35b341561023757600080fd5b6101de600160a060020a03600435811690602435166044356105e7565b341561025f57600080fd5b61021a600160a060020a03600435166024356106ff565b341561028157600080fd5b6101de600160a060020a0360043581169060243516604435610712565b34156102a957600080fd5b6101a0600435610738565b34156102bf57600080fd5b610113600435610743565b34156102d557600080fd5b61021a600160a060020a03600435166107fe565b34156102f457600080fd5b6101a0610819565b341561030757600080fd5b610113610828565b341561031a57600080fd5b6101de600160a060020a036004351660243561089b565b341561033c57600080fd5b61021a61098c565b341561034f57600080fd5b61021a60048035600160a060020a03169060446024803590810190830135806020601f8201819004810201604051908101604052818152929190602084018383808284375094965061099295505050505050565b34156103ae57600080fd5b6103c2600160a060020a0360043516610a29565b60405160208082528190810183818151815260200191508051906020019060200280838360005b838110156104015780820151838201526020016103e9565b505050509050019250505060405180910390f35b341561042057600080fd5b6101de600160a060020a0360043516610a3a565b61043c610dd1565b60008054600181600116156101000203166002900480601f0160208091040260200160405190810160405280929190818152602001828054600181600116156101000203166002900480156104d25780601f106104a7576101008083540402835291602001916104d2565b820191906000526020600020905b8154815290600101906020018083116104b557829003601f168201915b505050505090505b90565b60006104e882610a90565b92915050565b8060006104fa82610738565b600160a060020a0316141561050e57600080fd5b61051782610738565b600160a060020a031633600160a060020a031614151561053657600080fd5b82600160a060020a031633600160a060020a03161415151561055757600080fd5b600061056283610a90565b600160a060020a03161415806105805750600160a060020a03831615155b156105d75761058f8383610aab565b82600160a060020a031633600160a060020a03167f8c5be1e5ebec7d5bd14f71427d1e84f3dd0314c0f7b2291e5b200ac8c7c3b9258460405190815260200160405180910390a35b505050565b600190565b60025490565b8060006105f382610738565b600160a060020a0316141561060757600080fd5b33600160a060020a031661061a836104dd565b600160a060020a03161461062d57600080fd5b83600160a060020a031661064083610738565b600160a060020a03161461065357600080fd5b600160a060020a038316151561066857600080fd5b610673848484610ae6565b600084600160a060020a03167f8c5be1e5ebec7d5bd14f71427d1e84f3dd0314c0f7b2291e5b200ac8c7c3b9258460405190815260200160405180910390a382600160a060020a031684600160a060020a03167fddf252ad1be2c89b69c2b068fc378daa952ba7f163c4a11628f55a4df523b3ef8460405190815260200160405180910390a350505050565b600061070b8383610b0d565b9392505050565b60085433600160a060020a0390811691161461072d57600080fd5b6105d7838383610ae6565b60006104e882610b45565b61074b610dd1565b600560008381526020019081526020016000208054600181600116156101000203166002900480601f0160208091040260200160405190810160405280929190818152602001828054600181600116156101000203166002900480156107f25780601f106107c7576101008083540402835291602001916107f2565b820191906000526020600020905b8154815290600101906020018083116107d557829003601f168201915b50505050509050919050565b600160a060020a031660009081526006602052604090205490565b600854600160a060020a031681565b610830610dd1565b60018054600181600116156101000203166002900480601f0160208091040260200160405190810160405280929190818152602001828054600181600116156101000203166002900480156104d25780601f106104a7576101008083540402835291602001916104d2565b8060006108a782610738565b600160a060020a031614156108bb57600080fd5b33600160a060020a03166108ce83610738565b600160a060020a0316146108e157600080fd5b600160a060020a03831615156108f657600080fd5b610901338484610ae6565b600033600160a060020a03167f8c5be1e5ebec7d5bd14f71427d1e84f3dd0314c0f7b2291e5b200ac8c7c3b9258460405190815260200160405180910390a382600160a060020a031633600160a060020a03167fddf252ad1be2c89b69c2b068fc378daa952ba7f163c4a11628f55a4df523b3ef8460405190815260200160405180910390a3505050565b60025481565b600854600090819033600160a060020a039081169116146109b257600080fd5b506002546109c08185610b60565b6109ca8482610b9b565b6109d48184610c02565b6002546109e890600163ffffffff610c2116565b60025580600160a060020a0385167f0f6798a560793a54c3bcfe86a93cde1e73087d944c0ea20544137d412139688560405160405180910390a39392505050565b610a31610dd1565b6104e882610c30565b60085433600160a060020a03908116911614610a5557600080fd5b600160a060020a03811615610a8d576008805473ffffffffffffffffffffffffffffffffffffffff1916600160a060020a0383161790555b50565b600090815260046020526040902054600160a060020a031690565b6000908152600460205260409020805473ffffffffffffffffffffffffffffffffffffffff1916600160a060020a0392909216919091179055565b610aef81610cb2565b610af98382610cdd565b610b038183610b60565b6105d78282610b9b565b600160a060020a0382166000908152600660205260408120805483908110610b3157fe5b906000526020600020900154905092915050565b600090815260036020526040902054600160a060020a031690565b600091825260036020526040909120805473ffffffffffffffffffffffffffffffffffffffff1916600160a060020a03909216919091179055565b600160a060020a0382166000908152600660205260409020805460018101610bc38382610de3565b506000918252602080832091909101839055600160a060020a039093168152600683526040808220549282526007909352919091206000199091019055565b60008281526005602052604090208180516105d7929160200190610e07565b60008282018381101561070b57fe5b610c38610dd1565b6006600083600160a060020a0316600160a060020a031681526020019081526020016000208054806020026020016040519081016040528092919081815260200182805480156107f257602002820191906000526020600020905b815481526020019060010190808311610c935750505050509050919050565b6000908152600460205260409020805473ffffffffffffffffffffffffffffffffffffffff19169055565b600160a060020a038216600081815260066020818152604080842080548786526007845291852054958552929091529291906000198401848110610d1d57fe5b6000918252602080832090910154600160a060020a0388168352600690915260409091208054919250829184908110610d5257fe5b6000918252602080832090910192909255828152600782526040808220859055600160a060020a038816825260069092522080546000198501908110610d9457fe5b60009182526020808320909101829055600160a060020a03871682526006905260409020805490610dc9906000198301610de3565b505050505050565b60206040519081016040526000815290565b8154818355818115116105d7576000838152602090206105d7918101908301610e85565b828054600181600116156101000203166002900490600052602060002090601f016020900481019282601f10610e4857805160ff1916838001178555610e75565b82800160010185558215610e75579182015b82811115610e75578251825591602001919060010190610e5a565b50610e81929150610e85565b5090565b6104da91905b80821115610e815760008155600101610e8b5600a165627a7a72305820a7c090eece863bc66dda917f9c59f841e520aac9ebc787090856af86970ee3210029",
  "source": "pragma solidity ^0.4.18;\n\nimport \"./CharityToken.sol\";\nimport \"zeppelin-solidity/contracts/math/SafeMath.sol\";\n\ncontract GiftChallenge {\n    using SafeMath for uint;\n\n    struct Gift {\n        bool isGift;\n        string confirmation;\n        address servant;\n        uint tokenId;\n        uint lastPayment;\n    }\n\n    mapping(string => Gift) gifts;\n\n    CharityToken public token;\n\n    function GiftChallenge() {\n        token = createToken();\n    }\n\n    function() payable {\n        throw;\n    }\n\n    function createToken(address _servant, string _link) public {\n        require(_servant != address(0));\n\n        Gift item = gifts[_link];\n\n        require(item.isGift == false);\n\n        uint tokenId = token.mint(_servant, _link);\n\n        item.tokenId = tokenId;\n        item.confirmation = _link;\n        item.servant = _servant;\n        item.isGift = true;\n\n        TokenCreated(_servant, _link, tokenId);\n    }\n\n    function buyToken(string _link) external payable {\n        Gift memory item = gifts[_link];\n\n        require(msg.value >= item.lastPayment.mul(2));\n\n        address owner = token.ownerOf(item.tokenId);\n        address servant = item.servant;\n\n        uint half = msg.value / 2;\n\n        owner.transfer(half);\n        servant.transfer(msg.value - half);\n\n        token.forceTransfer(owner, msg.sender, item.tokenId);\n\n        gifts[_link].lastPayment = msg.value;\n\n        TokenBought(item.tokenId, owner, msg.sender, item.lastPayment, msg.value);\n    }\n\n    function getPrice(string _link) public constant returns(uint) {\n        return gifts[_link].lastPayment;\n    }\n\n    function getServant(string _link) public constant returns(address) {\n        return gifts[_link].servant;\n    }\n\n    function getToken(string _link) public constant returns(uint) {\n        return gifts[_link].tokenId;\n    }\n\n    function getOwner(string _link) public constant returns(address) {\n        uint tokenId = gifts[_link].tokenId;\n        address owner = token.ownerOf(tokenId);\n        return owner;\n    }\n\n    function createToken() internal returns(CharityToken _token) {\n        return new CharityToken(\"Gift Challenge Token\", \"GIFT\");\n    }\n\n    event TokenCreated(address indexed _servant, string _link, uint indexed _token);\n    event TokenBought(uint indexed _token, address indexed _previousOwner, address indexed _newOwner, uint _previousPrice, uint _newPrice);\n}",
  "sourcePath": "/home/sevenflash/apps/blockchain/devchain/dapp/giftchallengedo/contracts/GiftChallenge.sol",
  "compiler": {
    "name": "solc",
    "version": "0.4.18+commit.9cf6e910.Emscripten.clang"
  },
  "schemaVersion": "1.0.1",
  "updatedAt": "2017-12-30T19:41:01.670Z"
}