{
  "contractName": "MintableNonFungibleToken",
  "abi": [
    {
      "constant": true,
      "inputs": [],
      "name": "name",
      "outputs": [
        {
          "name": "_name",
          "type": "string"
        }
      ],
      "payable": false,
      "stateMutability": "view",
      "type": "function"
    },
    {
      "constant": true,
      "inputs": [
        {
          "name": "_tokenId",
          "type": "uint256"
        }
      ],
      "name": "getApproved",
      "outputs": [
        {
          "name": "_approved",
          "type": "address"
        }
      ],
      "payable": false,
      "stateMutability": "view",
      "type": "function"
    },
    {
      "constant": false,
      "inputs": [
        {
          "name": "_to",
          "type": "address"
        },
        {
          "name": "_tokenId",
          "type": "uint256"
        }
      ],
      "name": "approve",
      "outputs": [],
      "payable": false,
      "stateMutability": "nonpayable",
      "type": "function"
    },
    {
      "constant": true,
      "inputs": [],
      "name": "implementsERC721",
      "outputs": [
        {
          "name": "_implementsERC721",
          "type": "bool"
        }
      ],
      "payable": false,
      "stateMutability": "view",
      "type": "function"
    },
    {
      "constant": true,
      "inputs": [],
      "name": "totalSupply",
      "outputs": [
        {
          "name": "_totalSupply",
          "type": "uint256"
        }
      ],
      "payable": false,
      "stateMutability": "view",
      "type": "function"
    },
    {
      "constant": false,
      "inputs": [
        {
          "name": "_from",
          "type": "address"
        },
        {
          "name": "_to",
          "type": "address"
        },
        {
          "name": "_tokenId",
          "type": "uint256"
        }
      ],
      "name": "transferFrom",
      "outputs": [],
      "payable": false,
      "stateMutability": "nonpayable",
      "type": "function"
    },
    {
      "constant": true,
      "inputs": [
        {
          "name": "_owner",
          "type": "address"
        },
        {
          "name": "_index",
          "type": "uint256"
        }
      ],
      "name": "tokenOfOwnerByIndex",
      "outputs": [
        {
          "name": "_tokenId",
          "type": "uint256"
        }
      ],
      "payable": false,
      "stateMutability": "view",
      "type": "function"
    },
    {
      "constant": true,
      "inputs": [
        {
          "name": "_tokenId",
          "type": "uint256"
        }
      ],
      "name": "ownerOf",
      "outputs": [
        {
          "name": "_owner",
          "type": "address"
        }
      ],
      "payable": false,
      "stateMutability": "view",
      "type": "function"
    },
    {
      "constant": true,
      "inputs": [
        {
          "name": "_tokenId",
          "type": "uint256"
        }
      ],
      "name": "tokenMetadata",
      "outputs": [
        {
          "name": "_infoUrl",
          "type": "string"
        }
      ],
      "payable": false,
      "stateMutability": "view",
      "type": "function"
    },
    {
      "constant": true,
      "inputs": [
        {
          "name": "_owner",
          "type": "address"
        }
      ],
      "name": "balanceOf",
      "outputs": [
        {
          "name": "_balance",
          "type": "uint256"
        }
      ],
      "payable": false,
      "stateMutability": "view",
      "type": "function"
    },
    {
      "constant": true,
      "inputs": [],
      "name": "symbol",
      "outputs": [
        {
          "name": "_symbol",
          "type": "string"
        }
      ],
      "payable": false,
      "stateMutability": "view",
      "type": "function"
    },
    {
      "constant": false,
      "inputs": [
        {
          "name": "_to",
          "type": "address"
        },
        {
          "name": "_tokenId",
          "type": "uint256"
        }
      ],
      "name": "transfer",
      "outputs": [],
      "payable": false,
      "stateMutability": "nonpayable",
      "type": "function"
    },
    {
      "constant": true,
      "inputs": [],
      "name": "numTokensTotal",
      "outputs": [
        {
          "name": "",
          "type": "uint256"
        }
      ],
      "payable": false,
      "stateMutability": "view",
      "type": "function"
    },
    {
      "constant": false,
      "inputs": [
        {
          "name": "_owner",
          "type": "address"
        },
        {
          "name": "_tokenId",
          "type": "uint256"
        },
        {
          "name": "_metadata",
          "type": "string"
        }
      ],
      "name": "mint",
      "outputs": [],
      "payable": false,
      "stateMutability": "nonpayable",
      "type": "function"
    },
    {
      "constant": true,
      "inputs": [
        {
          "name": "_owner",
          "type": "address"
        }
      ],
      "name": "getOwnerTokens",
      "outputs": [
        {
          "name": "_tokenIds",
          "type": "uint256[]"
        }
      ],
      "payable": false,
      "stateMutability": "view",
      "type": "function"
    },
    {
      "anonymous": false,
      "inputs": [
        {
          "indexed": true,
          "name": "_to",
          "type": "address"
        },
        {
          "indexed": true,
          "name": "_tokenId",
          "type": "uint256"
        }
      ],
      "name": "Mint",
      "type": "event"
    },
    {
      "anonymous": false,
      "inputs": [
        {
          "indexed": true,
          "name": "_from",
          "type": "address"
        },
        {
          "indexed": true,
          "name": "_to",
          "type": "address"
        },
        {
          "indexed": false,
          "name": "_tokenId",
          "type": "uint256"
        }
      ],
      "name": "Transfer",
      "type": "event"
    },
    {
      "anonymous": false,
      "inputs": [
        {
          "indexed": true,
          "name": "_owner",
          "type": "address"
        },
        {
          "indexed": true,
          "name": "_approved",
          "type": "address"
        },
        {
          "indexed": false,
          "name": "_tokenId",
          "type": "uint256"
        }
      ],
      "name": "Approval",
      "type": "event"
    }
  ],
  "bytecode": "0x6060604052341561000f57600080fd5b610dca8061001e6000396000f3006060604052600436106100da5763ffffffff7c010000000000000000000000000000000000000000000000000000000060003504166306fdde0381146100df578063081812fc14610169578063095ea7b31461019b5780631051db34146101bf57806318160ddd146101e657806323b872dd1461020b5780632f745c59146102335780636352211e146102555780636914db601461026b57806370a082311461028157806395d89b41146102a0578063a9059cbb146102b3578063af129dc2146102d5578063d3fc9864146102e8578063d63d4af01461034d575b600080fd5b34156100ea57600080fd5b6100f26103bf565b60405160208082528190810183818151815260200191508051906020019080838360005b8381101561012e578082015183820152602001610116565b50505050905090810190601f16801561015b5780820380516001836020036101000a031916815260200191505b509250505060405180910390f35b341561017457600080fd5b61017f600435610468565b604051600160a060020a03909116815260200160405180910390f35b34156101a657600080fd5b6101bd600160a060020a0360043516602435610479565b005b34156101ca57600080fd5b6101d2610567565b604051901515815260200160405180910390f35b34156101f157600080fd5b6101f961056c565b60405190815260200160405180910390f35b341561021657600080fd5b6101bd600160a060020a0360043581169060243516604435610572565b341561023e57600080fd5b6101f9600160a060020a036004351660243561068a565b341561026057600080fd5b61017f60043561069d565b341561027657600080fd5b6100f26004356106a8565b341561028c57600080fd5b6101f9600160a060020a0360043516610763565b34156102ab57600080fd5b6100f261077e565b34156102be57600080fd5b6101bd600160a060020a03600435166024356107f1565b34156102e057600080fd5b6101f96108e2565b34156102f357600080fd5b6101bd60048035600160a060020a03169060248035919060649060443590810190830135806020601f820181900481020160405190810160405281815292919060208401838380828437509496506108e895505050505050565b341561035857600080fd5b61036c600160a060020a036004351661097e565b60405160208082528190810183818151815260200191508051906020019060200280838360005b838110156103ab578082015183820152602001610393565b505050509050019250505060405180910390f35b6103c7610cd0565b60008054600181600116156101000203166002900480601f01602080910402602001604051908101604052809291908181526020018280546001816001161561010002031660029004801561045d5780601f106104325761010080835404028352916020019161045d565b820191906000526020600020905b81548152906001019060200180831161044057829003601f168201915b505050505090505b90565b60006104738261098f565b92915050565b8060006104858261069d565b600160a060020a0316141561049957600080fd5b6104a28261069d565b600160a060020a031633600160a060020a03161415156104c157600080fd5b82600160a060020a031633600160a060020a0316141515156104e257600080fd5b60006104ed8361098f565b600160a060020a031614158061050b5750600160a060020a03831615155b156105625761051a83836109aa565b82600160a060020a031633600160a060020a03167f8c5be1e5ebec7d5bd14f71427d1e84f3dd0314c0f7b2291e5b200ac8c7c3b9258460405190815260200160405180910390a35b505050565b600190565b60025490565b80600061057e8261069d565b600160a060020a0316141561059257600080fd5b33600160a060020a03166105a583610468565b600160a060020a0316146105b857600080fd5b83600160a060020a03166105cb8361069d565b600160a060020a0316146105de57600080fd5b600160a060020a03831615156105f357600080fd5b6105fe8484846109e5565b600084600160a060020a03167f8c5be1e5ebec7d5bd14f71427d1e84f3dd0314c0f7b2291e5b200ac8c7c3b9258460405190815260200160405180910390a382600160a060020a031684600160a060020a03167fddf252ad1be2c89b69c2b068fc378daa952ba7f163c4a11628f55a4df523b3ef8460405190815260200160405180910390a350505050565b60006106968383610a0c565b9392505050565b600061047382610a44565b6106b0610cd0565b600560008381526020019081526020016000208054600181600116156101000203166002900480601f0160208091040260200160405190810160405280929190818152602001828054600181600116156101000203166002900480156107575780601f1061072c57610100808354040283529160200191610757565b820191906000526020600020905b81548152906001019060200180831161073a57829003601f168201915b50505050509050919050565b600160a060020a031660009081526006602052604090205490565b610786610cd0565b60018054600181600116156101000203166002900480601f01602080910402602001604051908101604052809291908181526020018280546001816001161561010002031660029004801561045d5780601f106104325761010080835404028352916020019161045d565b8060006107fd8261069d565b600160a060020a0316141561081157600080fd5b33600160a060020a03166108248361069d565b600160a060020a03161461083757600080fd5b600160a060020a038316151561084c57600080fd5b6108573384846109e5565b600033600160a060020a03167f8c5be1e5ebec7d5bd14f71427d1e84f3dd0314c0f7b2291e5b200ac8c7c3b9258460405190815260200160405180910390a382600160a060020a031633600160a060020a03167fddf252ad1be2c89b69c2b068fc378daa952ba7f163c4a11628f55a4df523b3ef8460405190815260200160405180910390a3505050565b60025481565b6000828152600360205260409020548290600160a060020a03161561090c57600080fd5b6109168385610a5f565b6109208484610a9a565b61092a8383610b01565b60025461093e90600163ffffffff610b2016565b60025582600160a060020a0385167f0f6798a560793a54c3bcfe86a93cde1e73087d944c0ea20544137d412139688560405160405180910390a350505050565b610986610cd0565b61047382610b2f565b600090815260046020526040902054600160a060020a031690565b6000908152600460205260409020805473ffffffffffffffffffffffffffffffffffffffff1916600160a060020a0392909216919091179055565b6109ee81610bb1565b6109f88382610bdc565b610a028183610a5f565b6105628282610a9a565b600160a060020a0382166000908152600660205260408120805483908110610a3057fe5b906000526020600020900154905092915050565b600090815260036020526040902054600160a060020a031690565b600091825260036020526040909120805473ffffffffffffffffffffffffffffffffffffffff1916600160a060020a03909216919091179055565b600160a060020a0382166000908152600660205260409020805460018101610ac28382610ce2565b506000918252602080832091909101839055600160a060020a039093168152600683526040808220549282526007909352919091206000199091019055565b6000828152600560205260409020818051610562929160200190610d06565b60008282018381101561069657fe5b610b37610cd0565b6006600083600160a060020a0316600160a060020a0316815260200190815260200160002080548060200260200160405190810160405280929190818152602001828054801561075757602002820191906000526020600020905b815481526020019060010190808311610b925750505050509050919050565b6000908152600460205260409020805473ffffffffffffffffffffffffffffffffffffffff19169055565b600160a060020a038216600081815260066020818152604080842080548786526007845291852054958552929091529291906000198401848110610c1c57fe5b6000918252602080832090910154600160a060020a0388168352600690915260409091208054919250829184908110610c5157fe5b6000918252602080832090910192909255828152600782526040808220859055600160a060020a038816825260069092522080546000198501908110610c9357fe5b60009182526020808320909101829055600160a060020a03871682526006905260409020805490610cc8906000198301610ce2565b505050505050565b60206040519081016040526000815290565b81548183558181151161056257600083815260209020610562918101908301610d84565b828054600181600116156101000203166002900490600052602060002090601f016020900481019282601f10610d4757805160ff1916838001178555610d74565b82800160010185558215610d74579182015b82811115610d74578251825591602001919060010190610d59565b50610d80929150610d84565b5090565b61046591905b80821115610d805760008155600101610d8a5600a165627a7a72305820641e8b1d0a9c995f3494f18baf82c42744a926d1393ad884bc23124cc0b95f5b0029",
  "source": "pragma solidity 0.4.18;\n\nimport \"./NonFungibleToken.sol\";\nimport \"zeppelin-solidity/contracts/math/SafeMath.sol\";\n\n\n/**\n * @title MintableNonFungibleToken\n *\n * Superset of the ERC721 standard that allows for the minting\n * of non-fungible tokens.\n */\ncontract MintableNonFungibleToken is NonFungibleToken {\n    using SafeMath for uint;\n\n    event Mint(address indexed _to, uint256 indexed _tokenId);\n\n    modifier onlyNonexistentToken(uint _tokenId) {\n        require(tokenIdToOwner[_tokenId] == address(0));\n        _;\n    }\n\n    function mint(address _owner, uint256 _tokenId, string _metadata)\n        public\n        onlyNonexistentToken(_tokenId)\n    {\n        _setTokenOwner(_tokenId, _owner);\n        _addTokenToOwnersList(_owner, _tokenId);\n        _insertTokenMetadata(_tokenId, _metadata);\n\n        numTokensTotal = numTokensTotal.add(1);\n\n        Mint(_owner, _tokenId);\n    }\n}\n",
  "sourcePath": "/src/contracts/MintableNonFungibleToken.sol",
  "compiler": {
    "name": "solc",
    "version": "0.4.18+commit.9cf6e910.Emscripten.clang"
  },
  "schemaVersion": "1.0.1",
  "updatedAt": "2017-12-28T18:26:43.847Z"
}