{
  "contractName": "NonFungibleToken",
  "abi": [
    {
      "constant": true,
      "inputs": [],
      "name": "name",
      "outputs": [
        {
          "name": "_name",
          "type": "string"
        }
      ],
      "payable": false,
      "stateMutability": "view",
      "type": "function"
    },
    {
      "constant": true,
      "inputs": [
        {
          "name": "_tokenId",
          "type": "uint256"
        }
      ],
      "name": "getApproved",
      "outputs": [
        {
          "name": "_approved",
          "type": "address"
        }
      ],
      "payable": false,
      "stateMutability": "view",
      "type": "function"
    },
    {
      "constant": false,
      "inputs": [
        {
          "name": "_to",
          "type": "address"
        },
        {
          "name": "_tokenId",
          "type": "uint256"
        }
      ],
      "name": "approve",
      "outputs": [],
      "payable": false,
      "stateMutability": "nonpayable",
      "type": "function"
    },
    {
      "constant": true,
      "inputs": [],
      "name": "implementsERC721",
      "outputs": [
        {
          "name": "_implementsERC721",
          "type": "bool"
        }
      ],
      "payable": false,
      "stateMutability": "view",
      "type": "function"
    },
    {
      "constant": true,
      "inputs": [],
      "name": "totalSupply",
      "outputs": [
        {
          "name": "_totalSupply",
          "type": "uint256"
        }
      ],
      "payable": false,
      "stateMutability": "view",
      "type": "function"
    },
    {
      "constant": false,
      "inputs": [
        {
          "name": "_from",
          "type": "address"
        },
        {
          "name": "_to",
          "type": "address"
        },
        {
          "name": "_tokenId",
          "type": "uint256"
        }
      ],
      "name": "transferFrom",
      "outputs": [],
      "payable": false,
      "stateMutability": "nonpayable",
      "type": "function"
    },
    {
      "constant": true,
      "inputs": [
        {
          "name": "_owner",
          "type": "address"
        },
        {
          "name": "_index",
          "type": "uint256"
        }
      ],
      "name": "tokenOfOwnerByIndex",
      "outputs": [
        {
          "name": "_tokenId",
          "type": "uint256"
        }
      ],
      "payable": false,
      "stateMutability": "view",
      "type": "function"
    },
    {
      "constant": true,
      "inputs": [
        {
          "name": "_tokenId",
          "type": "uint256"
        }
      ],
      "name": "ownerOf",
      "outputs": [
        {
          "name": "_owner",
          "type": "address"
        }
      ],
      "payable": false,
      "stateMutability": "view",
      "type": "function"
    },
    {
      "constant": true,
      "inputs": [
        {
          "name": "_tokenId",
          "type": "uint256"
        }
      ],
      "name": "tokenMetadata",
      "outputs": [
        {
          "name": "_infoUrl",
          "type": "string"
        }
      ],
      "payable": false,
      "stateMutability": "view",
      "type": "function"
    },
    {
      "constant": true,
      "inputs": [
        {
          "name": "_owner",
          "type": "address"
        }
      ],
      "name": "balanceOf",
      "outputs": [
        {
          "name": "_balance",
          "type": "uint256"
        }
      ],
      "payable": false,
      "stateMutability": "view",
      "type": "function"
    },
    {
      "constant": true,
      "inputs": [],
      "name": "symbol",
      "outputs": [
        {
          "name": "_symbol",
          "type": "string"
        }
      ],
      "payable": false,
      "stateMutability": "view",
      "type": "function"
    },
    {
      "constant": false,
      "inputs": [
        {
          "name": "_to",
          "type": "address"
        },
        {
          "name": "_tokenId",
          "type": "uint256"
        }
      ],
      "name": "transfer",
      "outputs": [],
      "payable": false,
      "stateMutability": "nonpayable",
      "type": "function"
    },
    {
      "constant": true,
      "inputs": [],
      "name": "numTokensTotal",
      "outputs": [
        {
          "name": "",
          "type": "uint256"
        }
      ],
      "payable": false,
      "stateMutability": "view",
      "type": "function"
    },
    {
      "constant": true,
      "inputs": [
        {
          "name": "_owner",
          "type": "address"
        }
      ],
      "name": "getOwnerTokens",
      "outputs": [
        {
          "name": "_tokenIds",
          "type": "uint256[]"
        }
      ],
      "payable": false,
      "stateMutability": "view",
      "type": "function"
    },
    {
      "anonymous": false,
      "inputs": [
        {
          "indexed": true,
          "name": "_from",
          "type": "address"
        },
        {
          "indexed": true,
          "name": "_to",
          "type": "address"
        },
        {
          "indexed": false,
          "name": "_tokenId",
          "type": "uint256"
        }
      ],
      "name": "Transfer",
      "type": "event"
    },
    {
      "anonymous": false,
      "inputs": [
        {
          "indexed": true,
          "name": "_owner",
          "type": "address"
        },
        {
          "indexed": true,
          "name": "_approved",
          "type": "address"
        },
        {
          "indexed": false,
          "name": "_tokenId",
          "type": "uint256"
        }
      ],
      "name": "Approval",
      "type": "event"
    }
  ],
  "bytecode": "0x6060604052341561000f57600080fd5b610c178061001e6000396000f3006060604052600436106100cf5763ffffffff7c010000000000000000000000000000000000000000000000000000000060003504166306fdde0381146100d4578063081812fc1461015e578063095ea7b3146101905780631051db34146101b457806318160ddd146101db57806323b872dd146102005780632f745c59146102285780636352211e1461024a5780636914db601461026057806370a082311461027657806395d89b4114610295578063a9059cbb146102a8578063af129dc2146102ca578063d63d4af0146102dd575b600080fd5b34156100df57600080fd5b6100e761034f565b60405160208082528190810183818151815260200191508051906020019080838360005b8381101561012357808201518382015260200161010b565b50505050905090810190601f1680156101505780820380516001836020036101000a031916815260200191505b509250505060405180910390f35b341561016957600080fd5b6101746004356103f8565b604051600160a060020a03909116815260200160405180910390f35b341561019b57600080fd5b6101b2600160a060020a0360043516602435610409565b005b34156101bf57600080fd5b6101c76104f7565b604051901515815260200160405180910390f35b34156101e657600080fd5b6101ee6104fc565b60405190815260200160405180910390f35b341561020b57600080fd5b6101b2600160a060020a0360043581169060243516604435610502565b341561023357600080fd5b6101ee600160a060020a036004351660243561061a565b341561025557600080fd5b61017460043561062d565b341561026b57600080fd5b6100e7600435610638565b341561028157600080fd5b6101ee600160a060020a03600435166106f3565b34156102a057600080fd5b6100e761070e565b34156102b357600080fd5b6101b2600160a060020a0360043516602435610781565b34156102d557600080fd5b6101ee610872565b34156102e857600080fd5b6102fc600160a060020a0360043516610878565b60405160208082528190810183818151815260200191508051906020019060200280838360005b8381101561033b578082015183820152602001610323565b505050509050019250505060405180910390f35b610357610b9c565b60008054600181600116156101000203166002900480601f0160208091040260200160405190810160405280929190818152602001828054600181600116156101000203166002900480156103ed5780601f106103c2576101008083540402835291602001916103ed565b820191906000526020600020905b8154815290600101906020018083116103d057829003601f168201915b505050505090505b90565b600061040382610889565b92915050565b8060006104158261062d565b600160a060020a0316141561042957600080fd5b6104328261062d565b600160a060020a031633600160a060020a031614151561045157600080fd5b82600160a060020a031633600160a060020a03161415151561047257600080fd5b600061047d83610889565b600160a060020a031614158061049b5750600160a060020a03831615155b156104f2576104aa83836108a4565b82600160a060020a031633600160a060020a03167f8c5be1e5ebec7d5bd14f71427d1e84f3dd0314c0f7b2291e5b200ac8c7c3b9258460405190815260200160405180910390a35b505050565b600190565b60025490565b80600061050e8261062d565b600160a060020a0316141561052257600080fd5b33600160a060020a0316610535836103f8565b600160a060020a03161461054857600080fd5b83600160a060020a031661055b8361062d565b600160a060020a03161461056e57600080fd5b600160a060020a038316151561058357600080fd5b61058e8484846108df565b600084600160a060020a03167f8c5be1e5ebec7d5bd14f71427d1e84f3dd0314c0f7b2291e5b200ac8c7c3b9258460405190815260200160405180910390a382600160a060020a031684600160a060020a03167fddf252ad1be2c89b69c2b068fc378daa952ba7f163c4a11628f55a4df523b3ef8460405190815260200160405180910390a350505050565b60006106268383610906565b9392505050565b60006104038261093e565b610640610b9c565b600560008381526020019081526020016000208054600181600116156101000203166002900480601f0160208091040260200160405190810160405280929190818152602001828054600181600116156101000203166002900480156106e75780601f106106bc576101008083540402835291602001916106e7565b820191906000526020600020905b8154815290600101906020018083116106ca57829003601f168201915b50505050509050919050565b600160a060020a031660009081526006602052604090205490565b610716610b9c565b60018054600181600116156101000203166002900480601f0160208091040260200160405190810160405280929190818152602001828054600181600116156101000203166002900480156103ed5780601f106103c2576101008083540402835291602001916103ed565b80600061078d8261062d565b600160a060020a031614156107a157600080fd5b33600160a060020a03166107b48361062d565b600160a060020a0316146107c757600080fd5b600160a060020a03831615156107dc57600080fd5b6107e73384846108df565b600033600160a060020a03167f8c5be1e5ebec7d5bd14f71427d1e84f3dd0314c0f7b2291e5b200ac8c7c3b9258460405190815260200160405180910390a382600160a060020a031633600160a060020a03167fddf252ad1be2c89b69c2b068fc378daa952ba7f163c4a11628f55a4df523b3ef8460405190815260200160405180910390a3505050565b60025481565b610880610b9c565b61040382610959565b600090815260046020526040902054600160a060020a031690565b6000908152600460205260409020805473ffffffffffffffffffffffffffffffffffffffff1916600160a060020a0392909216919091179055565b6108e8816109db565b6108f28382610a06565b6108fc8183610afa565b6104f28282610b35565b600160a060020a038216600090815260066020526040812080548390811061092a57fe5b906000526020600020900154905092915050565b600090815260036020526040902054600160a060020a031690565b610961610b9c565b6006600083600160a060020a0316600160a060020a031681526020019081526020016000208054806020026020016040519081016040528092919081815260200182805480156106e757602002820191906000526020600020905b8154815260200190600101908083116109bc5750505050509050919050565b6000908152600460205260409020805473ffffffffffffffffffffffffffffffffffffffff19169055565b600160a060020a038216600081815260066020818152604080842080548786526007845291852054958552929091529291906000198401848110610a4657fe5b6000918252602080832090910154600160a060020a0388168352600690915260409091208054919250829184908110610a7b57fe5b6000918252602080832090910192909255828152600782526040808220859055600160a060020a038816825260069092522080546000198501908110610abd57fe5b60009182526020808320909101829055600160a060020a03871682526006905260409020805490610af2906000198301610bae565b505050505050565b600091825260036020526040909120805473ffffffffffffffffffffffffffffffffffffffff1916600160a060020a03909216919091179055565b600160a060020a0382166000908152600660205260409020805460018101610b5d8382610bae565b506000918252602080832091909101839055600160a060020a039093168152600683526040808220549282526007909352919091206000199091019055565b60206040519081016040526000815290565b8154818355818115116104f2576000838152602090206104f29181019083016103f591905b80821115610be75760008155600101610bd3565b50905600a165627a7a72305820e3cd4d14afb59fb710503d7e1426ac7be361852e311641cdcb0d3d558362d9bc0029",
  "source": "pragma solidity 0.4.18;\n\nimport \"./DetailedERC721.sol\";\n\n\n/**\n * @title NonFungibleToken\n *\n * Generic implementation for both required and optional functionality in\n * the ERC721 standard for non-fungible tokens.\n *\n * Heavily inspired by Decentraland's generic implementation:\n * https://github.com/decentraland/land/blob/master/contracts/BasicNFT.sol\n *\n * Standard Author: dete\n * Implementation Author: Nadav Hollander <nadav at dharma.io>\n */\ncontract NonFungibleToken is DetailedERC721 {\n    string public name;\n    string public symbol;\n\n    uint public numTokensTotal;\n\n    mapping(uint => address) internal tokenIdToOwner;\n    mapping(uint => address) internal tokenIdToApprovedAddress;\n    mapping(uint => string) internal tokenIdToMetadata;\n    mapping(address => uint[]) internal ownerToTokensOwned;\n    mapping(uint => uint) internal tokenIdToOwnerArrayIndex;\n\n    event Transfer(\n        address indexed _from,\n        address indexed _to,\n        uint256 _tokenId\n    );\n\n    event Approval(\n        address indexed _owner,\n        address indexed _approved,\n        uint256 _tokenId\n    );\n\n    modifier onlyExtantToken(uint _tokenId) {\n        require(ownerOf(_tokenId) != address(0));\n        _;\n    }\n\n    function name()\n        public\n        view\n        returns (string _name)\n    {\n        return name;\n    }\n\n    function symbol()\n        public\n        view\n        returns (string _symbol)\n    {\n        return symbol;\n    }\n\n    function totalSupply()\n        public\n        view\n        returns (uint256 _totalSupply)\n    {\n        return numTokensTotal;\n    }\n\n    function balanceOf(address _owner)\n        public\n        view\n        returns (uint _balance)\n    {\n        return ownerToTokensOwned[_owner].length;\n    }\n\n    function ownerOf(uint _tokenId)\n        public\n        view\n        returns (address _owner)\n    {\n        return _ownerOf(_tokenId);\n    }\n\n    function tokenMetadata(uint _tokenId)\n        public\n        view\n        returns (string _infoUrl)\n    {\n        return tokenIdToMetadata[_tokenId];\n    }\n\n    function approve(address _to, uint _tokenId)\n        public\n        onlyExtantToken(_tokenId)\n    {\n        require(msg.sender == ownerOf(_tokenId));\n        require(msg.sender != _to);\n\n        if (_getApproved(_tokenId) != address(0) ||\n                _to != address(0)) {\n            _approve(_to, _tokenId);\n            Approval(msg.sender, _to, _tokenId);\n        }\n    }\n\n    function transferFrom(address _from, address _to, uint _tokenId)\n        public\n        onlyExtantToken(_tokenId)\n    {\n        require(getApproved(_tokenId) == msg.sender);\n        require(ownerOf(_tokenId) == _from);\n        require(_to != address(0));\n\n        _clearApprovalAndTransfer(_from, _to, _tokenId);\n\n        Approval(_from, 0, _tokenId);\n        Transfer(_from, _to, _tokenId);\n    }\n\n    function transfer(address _to, uint _tokenId)\n        public\n        onlyExtantToken(_tokenId)\n    {\n        require(ownerOf(_tokenId) == msg.sender);\n        require(_to != address(0));\n\n        _clearApprovalAndTransfer(msg.sender, _to, _tokenId);\n\n        Approval(msg.sender, 0, _tokenId);\n        Transfer(msg.sender, _to, _tokenId);\n    }\n\n    function tokenOfOwnerByIndex(address _owner, uint _index)\n        public\n        view\n        returns (uint _tokenId)\n    {\n        return _getOwnerTokenByIndex(_owner, _index);\n    }\n\n    function getOwnerTokens(address _owner)\n        public\n        view\n        returns (uint[] _tokenIds)\n    {\n        return _getOwnerTokens(_owner);\n    }\n\n    function implementsERC721()\n        public\n        view\n        returns (bool _implementsERC721)\n    {\n        return true;\n    }\n\n    function getApproved(uint _tokenId)\n        public\n        view\n        returns (address _approved)\n    {\n        return _getApproved(_tokenId);\n    }\n\n    function _clearApprovalAndTransfer(address _from, address _to, uint _tokenId)\n        internal\n    {\n        _clearTokenApproval(_tokenId);\n        _removeTokenFromOwnersList(_from, _tokenId);\n        _setTokenOwner(_tokenId, _to);\n        _addTokenToOwnersList(_to, _tokenId);\n    }\n\n    function _ownerOf(uint _tokenId)\n        internal\n        view\n        returns (address _owner)\n    {\n        return tokenIdToOwner[_tokenId];\n    }\n\n    function _approve(address _to, uint _tokenId)\n        internal\n    {\n        tokenIdToApprovedAddress[_tokenId] = _to;\n    }\n\n    function _getApproved(uint _tokenId)\n        internal\n        view\n        returns (address _approved)\n    {\n        return tokenIdToApprovedAddress[_tokenId];\n    }\n\n    function _getOwnerTokens(address _owner)\n        internal\n        view\n        returns (uint[] _tokens)\n    {\n        return ownerToTokensOwned[_owner];\n    }\n\n    function _getOwnerTokenByIndex(address _owner, uint _index)\n        internal\n        view\n        returns (uint _tokens)\n    {\n        return ownerToTokensOwned[_owner][_index];\n    }\n\n    function _clearTokenApproval(uint _tokenId)\n        internal\n    {\n        tokenIdToApprovedAddress[_tokenId] = address(0);\n    }\n\n    function _setTokenOwner(uint _tokenId, address _owner)\n        internal\n    {\n        tokenIdToOwner[_tokenId] = _owner;\n    }\n\n    function _addTokenToOwnersList(address _owner, uint _tokenId)\n        internal\n    {\n        ownerToTokensOwned[_owner].push(_tokenId);\n        tokenIdToOwnerArrayIndex[_tokenId] =\n            ownerToTokensOwned[_owner].length - 1;\n    }\n\n    function _removeTokenFromOwnersList(address _owner, uint _tokenId)\n        internal\n    {\n        uint length = ownerToTokensOwned[_owner].length;\n        uint index = tokenIdToOwnerArrayIndex[_tokenId];\n        uint swapToken = ownerToTokensOwned[_owner][length - 1];\n\n        ownerToTokensOwned[_owner][index] = swapToken;\n        tokenIdToOwnerArrayIndex[swapToken] = index;\n\n        delete ownerToTokensOwned[_owner][length - 1];\n        ownerToTokensOwned[_owner].length--;\n    }\n\n    function _insertTokenMetadata(uint _tokenId, string _metadata)\n        internal\n    {\n        tokenIdToMetadata[_tokenId] = _metadata;\n    }\n}\n",
  "sourcePath": "/src/contracts/NonFungibleToken.sol",
  "compiler": {
    "name": "solc",
    "version": "0.4.18+commit.9cf6e910.Emscripten.clang"
  },
  "schemaVersion": "1.0.1",
  "updatedAt": "2017-12-28T18:26:43.847Z"
}